{
  "contractName": "RunToEarn",
  "abi": [
    {
      "inputs": [
        {
          "internalType": "address",
          "name": "_runTokenAddress",
          "type": "address"
        }
      ],
      "stateMutability": "nonpayable",
      "type": "constructor"
    },
    {
      "inputs": [
        {
          "internalType": "address",
          "name": "owner",
          "type": "address"
        }
      ],
      "name": "OwnableInvalidOwner",
      "type": "error"
    },
    {
      "inputs": [
        {
          "internalType": "address",
          "name": "account",
          "type": "address"
        }
      ],
      "name": "OwnableUnauthorizedAccount",
      "type": "error"
    },
    {
      "inputs": [],
      "name": "ReentrancyGuardReentrantCall",
      "type": "error"
    },
    {
      "anonymous": false,
      "inputs": [
        {
          "indexed": true,
          "internalType": "address",
          "name": "user",
          "type": "address"
        },
        {
          "indexed": false,
          "internalType": "uint256",
          "name": "distance",
          "type": "uint256"
        },
        {
          "indexed": false,
          "internalType": "uint256",
          "name": "rewards",
          "type": "uint256"
        }
      ],
      "name": "ActivityLogged",
      "type": "event"
    },
    {
      "anonymous": false,
      "inputs": [
        {
          "indexed": true,
          "internalType": "address",
          "name": "previousOwner",
          "type": "address"
        },
        {
          "indexed": true,
          "internalType": "address",
          "name": "newOwner",
          "type": "address"
        }
      ],
      "name": "OwnershipTransferred",
      "type": "event"
    },
    {
      "anonymous": false,
      "inputs": [
        {
          "indexed": true,
          "internalType": "address",
          "name": "user",
          "type": "address"
        }
      ],
      "name": "UserRegistered",
      "type": "event"
    },
    {
      "inputs": [],
      "name": "MIN_TIME_BETWEEN_ACTIVITIES",
      "outputs": [
        {
          "internalType": "uint256",
          "name": "",
          "type": "uint256"
        }
      ],
      "stateMutability": "view",
      "type": "function",
      "constant": true
    },
    {
      "inputs": [],
      "name": "REWARD_PER_KM",
      "outputs": [
        {
          "internalType": "uint256",
          "name": "",
          "type": "uint256"
        }
      ],
      "stateMutability": "view",
      "type": "function",
      "constant": true
    },
    {
      "inputs": [],
      "name": "owner",
      "outputs": [
        {
          "internalType": "address",
          "name": "",
          "type": "address"
        }
      ],
      "stateMutability": "view",
      "type": "function",
      "constant": true
    },
    {
      "inputs": [],
      "name": "renounceOwnership",
      "outputs": [],
      "stateMutability": "nonpayable",
      "type": "function"
    },
    {
      "inputs": [],
      "name": "runToken",
      "outputs": [
        {
          "internalType": "contract RunToken",
          "name": "",
          "type": "address"
        }
      ],
      "stateMutability": "view",
      "type": "function",
      "constant": true
    },
    {
      "inputs": [
        {
          "internalType": "address",
          "name": "newOwner",
          "type": "address"
        }
      ],
      "name": "transferOwnership",
      "outputs": [],
      "stateMutability": "nonpayable",
      "type": "function"
    },
    {
      "inputs": [
        {
          "internalType": "address",
          "name": "",
          "type": "address"
        }
      ],
      "name": "users",
      "outputs": [
        {
          "internalType": "bool",
          "name": "isRegistered",
          "type": "bool"
        },
        {
          "internalType": "uint256",
          "name": "lastActivityTimestamp",
          "type": "uint256"
        },
        {
          "internalType": "uint256",
          "name": "recentReward",
          "type": "uint256"
        },
        {
          "internalType": "uint256",
          "name": "totalDistance",
          "type": "uint256"
        },
        {
          "internalType": "uint256",
          "name": "totalRewards",
          "type": "uint256"
        }
      ],
      "stateMutability": "view",
      "type": "function",
      "constant": true
    },
    {
      "inputs": [],
      "name": "registerUser",
      "outputs": [],
      "stateMutability": "nonpayable",
      "type": "function"
    },
    {
      "inputs": [
        {
          "internalType": "uint256",
          "name": "distance",
          "type": "uint256"
        }
      ],
      "name": "logActivity",
      "outputs": [],
      "stateMutability": "nonpayable",
      "type": "function"
    },
    {
      "inputs": [],
      "name": "collectRewards",
      "outputs": [],
      "stateMutability": "nonpayable",
      "type": "function"
    },
    {
      "inputs": [
        {
          "internalType": "uint256",
          "name": "distance",
          "type": "uint256"
        }
      ],
      "name": "calculateReward",
      "outputs": [
        {
          "internalType": "uint256",
          "name": "",
          "type": "uint256"
        }
      ],
      "stateMutability": "pure",
      "type": "function",
      "constant": true
    },
    {
      "inputs": [
        {
          "internalType": "address",
          "name": "userAddress",
          "type": "address"
        }
      ],
      "name": "getUserStats",
      "outputs": [
        {
          "internalType": "uint256",
          "name": "",
          "type": "uint256"
        },
        {
          "internalType": "uint256",
          "name": "",
          "type": "uint256"
        },
        {
          "internalType": "uint256",
          "name": "",
          "type": "uint256"
        },
        {
          "internalType": "uint256",
          "name": "",
          "type": "uint256"
        }
      ],
      "stateMutability": "view",
      "type": "function",
      "constant": true
    },
    {
      "inputs": [],
      "name": "getBalance",
      "outputs": [
        {
          "internalType": "uint256",
          "name": "",
          "type": "uint256"
        }
      ],
      "stateMutability": "view",
      "type": "function",
      "constant": true
    },
    {
      "inputs": [
        {
          "internalType": "address",
          "name": "userAddress",
          "type": "address"
        }
      ],
      "name": "checkRegister",
      "outputs": [
        {
          "internalType": "bool",
          "name": "",
          "type": "bool"
        }
      ],
      "stateMutability": "view",
      "type": "function",
      "constant": true
    }
  ],
  "bytecode": "0x608060405234801562000010575f80fd5b50604051620016f8380380620016f8833981810160405281019062000036919062000230565b335f73ffffffffffffffffffffffffffffffffffffffff168173ffffffffffffffffffffffffffffffffffffffff1603620000aa575f6040517f1e4fbdf7000000000000000000000000000000000000000000000000000000008152600401620000a1919062000271565b60405180910390fd5b620000bb816200010a60201b60201c565b50600180819055508060025f6101000a81548173ffffffffffffffffffffffffffffffffffffffff021916908373ffffffffffffffffffffffffffffffffffffffff160217905550506200028c565b5f805f9054906101000a900473ffffffffffffffffffffffffffffffffffffffff169050815f806101000a81548173ffffffffffffffffffffffffffffffffffffffff021916908373ffffffffffffffffffffffffffffffffffffffff1602179055508173ffffffffffffffffffffffffffffffffffffffff168173ffffffffffffffffffffffffffffffffffffffff167f8be0079c531659141344cd1fd0a4f28419497f9722a3daafe3b4186f6b6457e060405160405180910390a35050565b5f80fd5b5f73ffffffffffffffffffffffffffffffffffffffff82169050919050565b5f620001fa82620001cf565b9050919050565b6200020c81620001ee565b811462000217575f80fd5b50565b5f815190506200022a8162000201565b92915050565b5f60208284031215620002485762000247620001cb565b5b5f62000257848285016200021a565b91505092915050565b6200026b81620001ee565b82525050565b5f602082019050620002865f83018462000260565b92915050565b61145e806200029a5f395ff3fe608060405234801561000f575f80fd5b50600436106100e8575f3560e01c80638da5cb5b1161008a578063d2d7231f11610064578063d2d7231f14610207578063f2fde38b14610237578063f5d8bcb414610253578063fc3f289014610283576100e8565b80638da5cb5b14610197578063a87430ba146101b5578063d05410f1146101e9576100e8565b80634e43603a116100c65780634e43603a146101325780635fa79b211461016557806370bb45b314610183578063715018a61461018d576100e8565b806312065fe0146100ec57806321acf4fe1461010a5780634d3820eb14610128575b5f80fd5b6100f461029f565b6040516101019190610da3565b60405180910390f35b61011261033e565b60405161011f9190610e36565b60405180910390f35b610130610363565b005b61014c60048036038101906101479190610e8e565b6104e3565b60405161015c9493929190610eb9565b60405180910390f35b61016d6105fa565b60405161017a9190610da3565b60405180910390f35b61018b610600565b005b6101956107a9565b005b61019f6107bc565b6040516101ac9190610f0b565b60405180910390f35b6101cf60048036038101906101ca9190610e8e565b6107e3565b6040516101e0959493929190610f3e565b60405180910390f35b6101f1610821565b6040516101fe9190610da3565b60405180910390f35b610221600480360381019061021c9190610fb9565b610829565b60405161022e9190610da3565b60405180910390f35b610251600480360381019061024c9190610e8e565b610854565b005b61026d60048036038101906102689190610e8e565b6108d8565b60405161027a9190610fe4565b60405180910390f35b61029d60048036038101906102989190610fb9565b61092c565b005b5f60025f9054906101000a900473ffffffffffffffffffffffffffffffffffffffff1673ffffffffffffffffffffffffffffffffffffffff166370a08231306040518263ffffffff1660e01b81526004016102fa9190610f0b565b602060405180830381865afa158015610315573d5f803e3d5ffd5b505050506040513d601f19601f820116820180604052508101906103399190611011565b905090565b60025f9054906101000a900473ffffffffffffffffffffffffffffffffffffffff1681565b60035f3373ffffffffffffffffffffffffffffffffffffffff1673ffffffffffffffffffffffffffffffffffffffff1681526020019081526020015f205f015f9054906101000a900460ff16156103ef576040517f08c379a00000000000000000000000000000000000000000000000000000000081526004016103e690611096565b60405180910390fd5b6040518060a001604052806001151581526020015f81526020015f81526020015f81526020015f81525060035f3373ffffffffffffffffffffffffffffffffffffffff1673ffffffffffffffffffffffffffffffffffffffff1681526020019081526020015f205f820151815f015f6101000a81548160ff021916908315150217905550602082015181600101556040820151816002015560608201518160030155608082015181600401559050503373ffffffffffffffffffffffffffffffffffffffff167f54db7a5cb4735e1aac1f53db512d3390390bb6637bd30ad4bf9fc98667d9b9b960405160405180910390a2565b5f805f8060035f8673ffffffffffffffffffffffffffffffffffffffff1673ffffffffffffffffffffffffffffffffffffffff1681526020019081526020015f206001015460035f8773ffffffffffffffffffffffffffffffffffffffff1673ffffffffffffffffffffffffffffffffffffffff1681526020019081526020015f206002015460035f8873ffffffffffffffffffffffffffffffffffffffff1673ffffffffffffffffffffffffffffffffffffffff1681526020019081526020015f206003015460035f8973ffffffffffffffffffffffffffffffffffffffff1673ffffffffffffffffffffffffffffffffffffffff1681526020019081526020015f206004015493509350935093509193509193565b610e1081565b5f60035f3373ffffffffffffffffffffffffffffffffffffffff1673ffffffffffffffffffffffffffffffffffffffff1681526020019081526020015f206004015490505f8111610686576040517f08c379a000000000000000000000000000000000000000000000000000000000815260040161067d906110fe565b60405180910390fd5b60025f9054906101000a900473ffffffffffffffffffffffffffffffffffffffff1673ffffffffffffffffffffffffffffffffffffffff1663a9059cbb33836040518363ffffffff1660e01b81526004016106e292919061111c565b6020604051808303815f875af11580156106fe573d5f803e3d5ffd5b505050506040513d601f19601f82011682018060405250810190610722919061116d565b610761576040517f08c379a0000000000000000000000000000000000000000000000000000000008152600401610758906111e2565b60405180910390fd5b5f60035f3373ffffffffffffffffffffffffffffffffffffffff1673ffffffffffffffffffffffffffffffffffffffff1681526020019081526020015f206004018190555050565b6107b1610bed565b6107ba5f610c74565b565b5f805f9054906101000a900473ffffffffffffffffffffffffffffffffffffffff16905090565b6003602052805f5260405f205f91509050805f015f9054906101000a900460ff16908060010154908060020154908060030154908060040154905085565b6305f5e10081565b5f670de0b6b3a76400006305f5e10083610843919061122d565b61084d919061129b565b9050919050565b61085c610bed565b5f73ffffffffffffffffffffffffffffffffffffffff168173ffffffffffffffffffffffffffffffffffffffff16036108cc575f6040517f1e4fbdf70000000000000000000000000000000000000000000000000000000081526004016108c39190610f0b565b60405180910390fd5b6108d581610c74565b50565b5f60035f8373ffffffffffffffffffffffffffffffffffffffff1673ffffffffffffffffffffffffffffffffffffffff1681526020019081526020015f205f015f9054906101000a900460ff169050919050565b610934610d35565b60035f3373ffffffffffffffffffffffffffffffffffffffff1673ffffffffffffffffffffffffffffffffffffffff1681526020019081526020015f205f015f9054906101000a900460ff166109bf576040517f08c379a00000000000000000000000000000000000000000000000000000000081526004016109b690611315565b60405180910390fd5b610e1060035f3373ffffffffffffffffffffffffffffffffffffffff1673ffffffffffffffffffffffffffffffffffffffff1681526020019081526020015f206001015442610a0e9190611333565b1015610a4f576040517f08c379a0000000000000000000000000000000000000000000000000000000008152600401610a46906113b0565b60405180910390fd5b5f610a5982610829565b90508160035f3373ffffffffffffffffffffffffffffffffffffffff1673ffffffffffffffffffffffffffffffffffffffff1681526020019081526020015f206003015f828254610aaa91906113ce565b925050819055508060035f3373ffffffffffffffffffffffffffffffffffffffff1673ffffffffffffffffffffffffffffffffffffffff1681526020019081526020015f20600201819055508060035f3373ffffffffffffffffffffffffffffffffffffffff1673ffffffffffffffffffffffffffffffffffffffff1681526020019081526020015f206004015f828254610b4591906113ce565b925050819055504260035f3373ffffffffffffffffffffffffffffffffffffffff1673ffffffffffffffffffffffffffffffffffffffff1681526020019081526020015f20600101819055503373ffffffffffffffffffffffffffffffffffffffff167f4baaea5232ccb0e3a5e41041d3f8ae77e093f9768e9b9a15d87e8d8bbcf159e78383604051610bd9929190611401565b60405180910390a250610bea610d7b565b50565b610bf5610d84565b73ffffffffffffffffffffffffffffffffffffffff16610c136107bc565b73ffffffffffffffffffffffffffffffffffffffff1614610c7257610c36610d84565b6040517f118cdaa7000000000000000000000000000000000000000000000000000000008152600401610c699190610f0b565b60405180910390fd5b565b5f805f9054906101000a900473ffffffffffffffffffffffffffffffffffffffff169050815f806101000a81548173ffffffffffffffffffffffffffffffffffffffff021916908373ffffffffffffffffffffffffffffffffffffffff1602179055508173ffffffffffffffffffffffffffffffffffffffff168173ffffffffffffffffffffffffffffffffffffffff167f8be0079c531659141344cd1fd0a4f28419497f9722a3daafe3b4186f6b6457e060405160405180910390a35050565b600260015403610d71576040517f3ee5aeb500000000000000000000000000000000000000000000000000000000815260040160405180910390fd5b6002600181905550565b60018081905550565b5f33905090565b5f819050919050565b610d9d81610d8b565b82525050565b5f602082019050610db65f830184610d94565b92915050565b5f73ffffffffffffffffffffffffffffffffffffffff82169050919050565b5f819050919050565b5f610dfe610df9610df484610dbc565b610ddb565b610dbc565b9050919050565b5f610e0f82610de4565b9050919050565b5f610e2082610e05565b9050919050565b610e3081610e16565b82525050565b5f602082019050610e495f830184610e27565b92915050565b5f80fd5b5f610e5d82610dbc565b9050919050565b610e6d81610e53565b8114610e77575f80fd5b50565b5f81359050610e8881610e64565b92915050565b5f60208284031215610ea357610ea2610e4f565b5b5f610eb084828501610e7a565b91505092915050565b5f608082019050610ecc5f830187610d94565b610ed96020830186610d94565b610ee66040830185610d94565b610ef36060830184610d94565b95945050505050565b610f0581610e53565b82525050565b5f602082019050610f1e5f830184610efc565b92915050565b5f8115159050919050565b610f3881610f24565b82525050565b5f60a082019050610f515f830188610f2f565b610f5e6020830187610d94565b610f6b6040830186610d94565b610f786060830185610d94565b610f856080830184610d94565b9695505050505050565b610f9881610d8b565b8114610fa2575f80fd5b50565b5f81359050610fb381610f8f565b92915050565b5f60208284031215610fce57610fcd610e4f565b5b5f610fdb84828501610fa5565b91505092915050565b5f602082019050610ff75f830184610f2f565b92915050565b5f8151905061100b81610f8f565b92915050565b5f6020828403121561102657611025610e4f565b5b5f61103384828501610ffd565b91505092915050565b5f82825260208201905092915050565b7f5573657220616c726561647920726567697374657265640000000000000000005f82015250565b5f61108060178361103c565b915061108b8261104c565b602082019050919050565b5f6020820190508181035f8301526110ad81611074565b9050919050565b7f4e6f207265776172647320746f20636f6c6c65637400000000000000000000005f82015250565b5f6110e860158361103c565b91506110f3826110b4565b602082019050919050565b5f6020820190508181035f830152611115816110dc565b9050919050565b5f60408201905061112f5f830185610efc565b61113c6020830184610d94565b9392505050565b61114c81610f24565b8114611156575f80fd5b50565b5f8151905061116781611143565b92915050565b5f6020828403121561118257611181610e4f565b5b5f61118f84828501611159565b91505092915050565b7f436f6e7472616374207472616e73666572206661696c656400000000000000005f82015250565b5f6111cc60188361103c565b91506111d782611198565b602082019050919050565b5f6020820190508181035f8301526111f9816111c0565b9050919050565b7f4e487b71000000000000000000000000000000000000000000000000000000005f52601160045260245ffd5b5f61123782610d8b565b915061124283610d8b565b925082820261125081610d8b565b9150828204841483151761126757611266611200565b5b5092915050565b7f4e487b71000000000000000000000000000000000000000000000000000000005f52601260045260245ffd5b5f6112a582610d8b565b91506112b083610d8b565b9250826112c0576112bf61126e565b5b828204905092915050565b7f55736572206e6f742072656769737465726564000000000000000000000000005f82015250565b5f6112ff60138361103c565b915061130a826112cb565b602082019050919050565b5f6020820190508181035f83015261132c816112f3565b9050919050565b5f61133d82610d8b565b915061134883610d8b565b92508282039050818111156113605761135f611200565b5b92915050565b7f546f6f20736f6f6e2073696e6365206c617374206163746976697479000000005f82015250565b5f61139a601c8361103c565b91506113a582611366565b602082019050919050565b5f6020820190508181035f8301526113c78161138e565b9050919050565b5f6113d882610d8b565b91506113e383610d8b565b92508282019050808211156113fb576113fa611200565b5b92915050565b5f6040820190506114145f830185610d94565b6114216020830184610d94565b939250505056fea264697066735822122061582abb6e4495262b8dbb18219144a9445f8d66c1e797ac30d8ca324c781d6c64736f6c63430008140033",
  "immutableReferences": {},
  "source": "// SPDX-License-Identifier: MIT\r\npragma solidity ^0.8.20;\r\n\r\nimport \"@openzeppelin/contracts/token/ERC20/ERC20.sol\";\r\nimport \"@openzeppelin/contracts/access/Ownable.sol\";\r\nimport \"@openzeppelin/contracts/utils/ReentrancyGuard.sol\";\r\n\r\n// The main token for the platform\r\ncontract RunToken is ERC20, Ownable {\r\n    constructor(uint256 initialSupply) ERC20(\"RunToken\", \"RUN\") Ownable(msg.sender) {\r\n        _mint(msg.sender, initialSupply);\r\n    }\r\n\r\n    function mint(address to, uint256 amount) public onlyOwner {\r\n        _mint(to, amount);\r\n    }\r\n}\r\n\r\n// The main contract for the run-to-earn platform\r\ncontract RunToEarn is Ownable, ReentrancyGuard {\r\n    RunToken public runToken;\r\n\r\n    struct User {\r\n        bool isRegistered;\r\n        uint256 lastActivityTimestamp;\r\n        uint256 recentReward;  // Represented as fixed-point value\r\n        uint256 totalDistance; // Represented as fixed-point value (multiplied by 1e18 for precision)\r\n        uint256 totalRewards;  // Represented as fixed-point value (multiplied by 1e18 for precision)\r\n    }\r\n\r\n    mapping(address => User) public users;\r\n\r\n    uint256 public constant REWARD_PER_KM = 10**8; // 0.01 tokens per km, scaled by 1e18 for precision\r\n    uint256 public constant MIN_TIME_BETWEEN_ACTIVITIES = 1 hours;\r\n\r\n    event UserRegistered(address indexed user);\r\n    event ActivityLogged(address indexed user, uint256 distance, uint256 rewards);\r\n\r\n    constructor(address _runTokenAddress) Ownable(msg.sender) {\r\n        runToken = RunToken(_runTokenAddress);\r\n    }\r\n\r\n    function registerUser() public {\r\n        require(!users[msg.sender].isRegistered, \"User already registered\");\r\n        users[msg.sender] = User(true, 0, 0, 0, 0);\r\n        emit UserRegistered(msg.sender);\r\n    }\r\n\r\n    // Accept distance in fixed-point format (e.g., 1.234 km as 1234000000000000000)\r\n    function logActivity(uint256 distance) public nonReentrant {\r\n        require(users[msg.sender].isRegistered, \"User not registered\");\r\n        require(block.timestamp - users[msg.sender].lastActivityTimestamp >= MIN_TIME_BETWEEN_ACTIVITIES, \"Too soon since last activity\");\r\n\r\n        uint256 reward = calculateReward(distance);\r\n\r\n        users[msg.sender].totalDistance += distance; // Add precise distance in fixed-point form\r\n        users[msg.sender].recentReward = reward;\r\n        users[msg.sender].totalRewards += reward;\r\n        users[msg.sender].lastActivityTimestamp = block.timestamp;\r\n\r\n        emit ActivityLogged(msg.sender, distance, reward);\r\n    }\r\n\r\n    function collectRewards() public {\r\n        uint256 reward = users[msg.sender].totalRewards;\r\n\r\n        require(reward > 0, \"No rewards to collect\");\r\n\r\n        require(runToken.transfer(msg.sender, reward), \"Contract transfer failed\");\r\n\r\n        // Reset the user's rewards after collection\r\n        users[msg.sender].totalRewards = 0;\r\n    }\r\n\r\n    // Adjust reward calculation to accept distance as a fixed-point value\r\n    function calculateReward(uint256 distance) public pure returns (uint256) {\r\n        // Use fixed-point arithmetic to calculate rewards based on distance\r\n        return distance * REWARD_PER_KM / 10 ** 18;\r\n    }\r\n\r\n    function getUserStats(address userAddress) public view returns (uint256, uint256, uint256, uint256) {\r\n        return (\r\n            users[userAddress].lastActivityTimestamp,\r\n            users[userAddress].recentReward, // Fixed-point value\r\n            users[userAddress].totalDistance, // Fixed-point value\r\n            users[userAddress].totalRewards  // Fixed-point value\r\n        );\r\n    }\r\n\r\n    function getBalance() public view returns (uint256) {\r\n        return runToken.balanceOf(address(this));\r\n    }\r\n\r\n    function checkRegister(address userAddress) public view returns (bool) {\r\n        return users[userAddress].isRegistered;\r\n    }\r\n}\r\n\r\n// A simple marketplace contract for the platform\r\ncontract RunMarketplace is Ownable, ReentrancyGuard {\r\n    RunToken public runToken;\r\n\r\n    struct Item {\r\n        uint256 id;\r\n        string name;\r\n        uint256 price;\r\n        address seller;\r\n        bool isAvailable;\r\n    }\r\n\r\n    mapping(uint256 => Item) public items;\r\n    uint256 public itemCount;\r\n\r\n    event ItemListed(uint256 indexed id, string name, uint256 price, address seller);\r\n    event ItemPurchased(uint256 indexed id, address buyer, address seller, uint256 price);\r\n\r\n    constructor(address _runTokenAddress) Ownable(msg.sender) {\r\n        runToken = RunToken(_runTokenAddress);\r\n    }\r\n\r\n    function listItem(string memory name, uint256 price) public {\r\n        itemCount++;\r\n        items[itemCount] = Item(itemCount, name, price, msg.sender, true);\r\n        emit ItemListed(itemCount, name, price, msg.sender);\r\n    }\r\n\r\n    function purchaseItem(uint256 itemId) public nonReentrant {\r\n        Item storage item = items[itemId];\r\n        require(item.isAvailable, \"Item is not available\");\r\n        require(runToken.balanceOf(msg.sender) >= item.price, \"Insufficient balance\");\r\n\r\n        item.isAvailable = false;\r\n        require(runToken.transferFrom(msg.sender, item.seller, item.price), \"Transfer failed\");\r\n\r\n        emit ItemPurchased(itemId, msg.sender, item.seller, item.price);\r\n    }\r\n}",
  "sourcePath": "C:\\Users\\Admin\\Desktop\\Projects\\bt_ass_3\\server\\contracts\\RunToEarn.sol",
  "compiler": {
    "name": "solc",
    "version": "0.8.20+commit.a1b79de6.Emscripten.clang"
  },
  "schemaVersion": "3.4.16",
  "updatedAt": "2024-10-22T07:49:22.675Z",
  "networkType": "ethereum",
  "devdoc": {
    "errors": {
      "OwnableInvalidOwner(address)": [
        {
          "details": "The owner is not a valid owner account. (eg. `address(0)`)"
        }
      ],
      "OwnableUnauthorizedAccount(address)": [
        {
          "details": "The caller account is not authorized to perform an operation."
        }
      ],
      "ReentrancyGuardReentrantCall()": [
        {
          "details": "Unauthorized reentrant call."
        }
      ]
    },
    "kind": "dev",
    "methods": {
      "owner()": {
        "details": "Returns the address of the current owner."
      },
      "renounceOwnership()": {
        "details": "Leaves the contract without owner. It will not be possible to call `onlyOwner` functions. Can only be called by the current owner. NOTE: Renouncing ownership will leave the contract without an owner, thereby disabling any functionality that is only available to the owner."
      },
      "transferOwnership(address)": {
        "details": "Transfers ownership of the contract to a new account (`newOwner`). Can only be called by the current owner."
      }
    },
    "version": 1
  },
  "userdoc": {
    "kind": "user",
    "methods": {},
    "version": 1
  }
}