{
  "contractName": "RunToEarn",
  "abi": [
    {
      "inputs": [
        {
          "internalType": "address",
          "name": "_runTokenAddress",
          "type": "address"
        }
      ],
      "stateMutability": "nonpayable",
      "type": "constructor"
    },
    {
      "inputs": [
        {
          "internalType": "address",
          "name": "owner",
          "type": "address"
        }
      ],
      "name": "OwnableInvalidOwner",
      "type": "error"
    },
    {
      "inputs": [
        {
          "internalType": "address",
          "name": "account",
          "type": "address"
        }
      ],
      "name": "OwnableUnauthorizedAccount",
      "type": "error"
    },
    {
      "inputs": [],
      "name": "ReentrancyGuardReentrantCall",
      "type": "error"
    },
    {
      "anonymous": false,
      "inputs": [
        {
          "indexed": true,
          "internalType": "address",
          "name": "user",
          "type": "address"
        },
        {
          "indexed": false,
          "internalType": "uint256",
          "name": "distance",
          "type": "uint256"
        },
        {
          "indexed": false,
          "internalType": "uint256",
          "name": "rewards",
          "type": "uint256"
        }
      ],
      "name": "ActivityLogged",
      "type": "event"
    },
    {
      "anonymous": false,
      "inputs": [
        {
          "indexed": true,
          "internalType": "address",
          "name": "previousOwner",
          "type": "address"
        },
        {
          "indexed": true,
          "internalType": "address",
          "name": "newOwner",
          "type": "address"
        }
      ],
      "name": "OwnershipTransferred",
      "type": "event"
    },
    {
      "anonymous": false,
      "inputs": [
        {
          "indexed": true,
          "internalType": "address",
          "name": "user",
          "type": "address"
        }
      ],
      "name": "UserRegistered",
      "type": "event"
    },
    {
      "inputs": [],
      "name": "MIN_TIME_BETWEEN_ACTIVITIES",
      "outputs": [
        {
          "internalType": "uint256",
          "name": "",
          "type": "uint256"
        }
      ],
      "stateMutability": "view",
      "type": "function"
    },
    {
      "inputs": [],
      "name": "REWARDS_PER_KM",
      "outputs": [
        {
          "internalType": "uint256",
          "name": "",
          "type": "uint256"
        }
      ],
      "stateMutability": "view",
      "type": "function"
    },
    {
      "inputs": [],
      "name": "owner",
      "outputs": [
        {
          "internalType": "address",
          "name": "",
          "type": "address"
        }
      ],
      "stateMutability": "view",
      "type": "function"
    },
    {
      "inputs": [],
      "name": "renounceOwnership",
      "outputs": [],
      "stateMutability": "nonpayable",
      "type": "function"
    },
    {
      "inputs": [],
      "name": "runToken",
      "outputs": [
        {
          "internalType": "contract RunToken",
          "name": "",
          "type": "address"
        }
      ],
      "stateMutability": "view",
      "type": "function"
    },
    {
      "inputs": [
        {
          "internalType": "address",
          "name": "newOwner",
          "type": "address"
        }
      ],
      "name": "transferOwnership",
      "outputs": [],
      "stateMutability": "nonpayable",
      "type": "function"
    },
    {
      "inputs": [
        {
          "internalType": "address",
          "name": "",
          "type": "address"
        }
      ],
      "name": "users",
      "outputs": [
        {
          "internalType": "bool",
          "name": "isRegistered",
          "type": "bool"
        },
        {
          "internalType": "uint256",
          "name": "lastActivityTimestamp",
          "type": "uint256"
        },
        {
          "internalType": "uint256",
          "name": "recentReward",
          "type": "uint256"
        },
        {
          "internalType": "uint256",
          "name": "totalDistance",
          "type": "uint256"
        },
        {
          "internalType": "uint256",
          "name": "totalRewards",
          "type": "uint256"
        }
      ],
      "stateMutability": "view",
      "type": "function"
    },
    {
      "inputs": [],
      "name": "registerUser",
      "outputs": [],
      "stateMutability": "nonpayable",
      "type": "function"
    },
    {
      "inputs": [
        {
          "internalType": "uint256",
          "name": "distance",
          "type": "uint256"
        }
      ],
      "name": "logActivity",
      "outputs": [],
      "stateMutability": "nonpayable",
      "type": "function"
    },
    {
      "inputs": [
        {
          "internalType": "uint256",
          "name": "distance",
          "type": "uint256"
        }
      ],
      "name": "calculateRewards",
      "outputs": [
        {
          "internalType": "uint256",
          "name": "",
          "type": "uint256"
        }
      ],
      "stateMutability": "pure",
      "type": "function"
    },
    {
      "inputs": [
        {
          "internalType": "address",
          "name": "userAddress",
          "type": "address"
        }
      ],
      "name": "getUserStats",
      "outputs": [
        {
          "internalType": "uint256",
          "name": "",
          "type": "uint256"
        },
        {
          "internalType": "uint256",
          "name": "",
          "type": "uint256"
        },
        {
          "internalType": "uint256",
          "name": "",
          "type": "uint256"
        },
        {
          "internalType": "uint256",
          "name": "",
          "type": "uint256"
        }
      ],
      "stateMutability": "view",
      "type": "function"
    }
  ],
  "bytecode": "0x608060405234801562000010575f80fd5b506040516200133138038062001331833981810160405281019062000036919062000230565b335f73ffffffffffffffffffffffffffffffffffffffff168173ffffffffffffffffffffffffffffffffffffffff1603620000aa575f6040517f1e4fbdf7000000000000000000000000000000000000000000000000000000008152600401620000a1919062000271565b60405180910390fd5b620000bb816200010a60201b60201c565b50600180819055508060025f6101000a81548173ffffffffffffffffffffffffffffffffffffffff021916908373ffffffffffffffffffffffffffffffffffffffff160217905550506200028c565b5f805f9054906101000a900473ffffffffffffffffffffffffffffffffffffffff169050815f806101000a81548173ffffffffffffffffffffffffffffffffffffffff021916908373ffffffffffffffffffffffffffffffffffffffff1602179055508173ffffffffffffffffffffffffffffffffffffffff168173ffffffffffffffffffffffffffffffffffffffff167f8be0079c531659141344cd1fd0a4f28419497f9722a3daafe3b4186f6b6457e060405160405180910390a35050565b5f80fd5b5f73ffffffffffffffffffffffffffffffffffffffff82169050919050565b5f620001fa82620001cf565b9050919050565b6200020c81620001ee565b811462000217575f80fd5b50565b5f815190506200022a8162000201565b92915050565b5f60208284031215620002485762000247620001cb565b5b5f62000257848285016200021a565b91505092915050565b6200026b81620001ee565b82525050565b5f602082019050620002865f83018462000260565b92915050565b611097806200029a5f395ff3fe608060405234801561000f575f80fd5b50600436106100a7575f3560e01c8063715018a61161006f578063715018a6146101425780638da5cb5b1461014c578063a87430ba1461016a578063d3ea43501461019e578063f2fde38b146101ce578063fc3f2890146101ea576100a7565b8063088824e8146100ab57806321acf4fe146100c95780634d3820eb146100e75780634e43603a146100f15780635fa79b2114610124575b5f80fd5b6100b3610206565b6040516100c09190610af9565b60405180910390f35b6100d1610212565b6040516100de9190610b8c565b60405180910390f35b6100ef610237565b005b61010b60048036038101906101069190610be4565b6103b7565b60405161011b9493929190610c0f565b60405180910390f35b61012c6104ce565b6040516101399190610af9565b60405180910390f35b61014a6104d4565b005b6101546104e7565b6040516101619190610c61565b60405180910390f35b610184600480360381019061017f9190610be4565b61050e565b604051610195959493929190610c94565b60405180910390f35b6101b860048036038101906101b39190610d0f565b61054c565b6040516101c59190610af9565b60405180910390f35b6101e860048036038101906101e39190610be4565b610568565b005b61020460048036038101906101ff9190610d0f565b6105ec565b005b678ac7230489e8000081565b60025f9054906101000a900473ffffffffffffffffffffffffffffffffffffffff1681565b60035f3373ffffffffffffffffffffffffffffffffffffffff1673ffffffffffffffffffffffffffffffffffffffff1681526020019081526020015f205f015f9054906101000a900460ff16156102c3576040517f08c379a00000000000000000000000000000000000000000000000000000000081526004016102ba90610d94565b60405180910390fd5b6040518060a001604052806001151581526020015f81526020015f81526020015f81526020015f81525060035f3373ffffffffffffffffffffffffffffffffffffffff1673ffffffffffffffffffffffffffffffffffffffff1681526020019081526020015f205f820151815f015f6101000a81548160ff021916908315150217905550602082015181600101556040820151816002015560608201518160030155608082015181600401559050503373ffffffffffffffffffffffffffffffffffffffff167f54db7a5cb4735e1aac1f53db512d3390390bb6637bd30ad4bf9fc98667d9b9b960405160405180910390a2565b5f805f8060035f8673ffffffffffffffffffffffffffffffffffffffff1673ffffffffffffffffffffffffffffffffffffffff1681526020019081526020015f206001015460035f8773ffffffffffffffffffffffffffffffffffffffff1673ffffffffffffffffffffffffffffffffffffffff1681526020019081526020015f206002015460035f8873ffffffffffffffffffffffffffffffffffffffff1673ffffffffffffffffffffffffffffffffffffffff1681526020019081526020015f206003015460035f8973ffffffffffffffffffffffffffffffffffffffff1673ffffffffffffffffffffffffffffffffffffffff1681526020019081526020015f206004015493509350935093509193509193565b610e1081565b6104dc610943565b6104e55f6109ca565b565b5f805f9054906101000a900473ffffffffffffffffffffffffffffffffffffffff16905090565b6003602052805f5260405f205f91509050805f015f9054906101000a900460ff16908060010154908060020154908060030154908060040154905085565b5f678ac7230489e80000826105619190610ddf565b9050919050565b610570610943565b5f73ffffffffffffffffffffffffffffffffffffffff168173ffffffffffffffffffffffffffffffffffffffff16036105e0575f6040517f1e4fbdf70000000000000000000000000000000000000000000000000000000081526004016105d79190610c61565b60405180910390fd5b6105e9816109ca565b50565b6105f4610a8b565b60035f3373ffffffffffffffffffffffffffffffffffffffff1673ffffffffffffffffffffffffffffffffffffffff1681526020019081526020015f205f015f9054906101000a900460ff1661067f576040517f08c379a000000000000000000000000000000000000000000000000000000000815260040161067690610e6a565b60405180910390fd5b610e1060035f3373ffffffffffffffffffffffffffffffffffffffff1673ffffffffffffffffffffffffffffffffffffffff1681526020019081526020015f2060010154426106ce9190610e88565b101561070f576040517f08c379a000000000000000000000000000000000000000000000000000000000815260040161070690610f05565b60405180910390fd5b5f6107198261054c565b90508160035f3373ffffffffffffffffffffffffffffffffffffffff1673ffffffffffffffffffffffffffffffffffffffff1681526020019081526020015f206003015f82825461076a9190610f23565b925050819055508060035f3373ffffffffffffffffffffffffffffffffffffffff1673ffffffffffffffffffffffffffffffffffffffff1681526020019081526020015f206004015f8282546107c09190610f23565b925050819055504260035f3373ffffffffffffffffffffffffffffffffffffffff1673ffffffffffffffffffffffffffffffffffffffff1681526020019081526020015f206001018190555060025f9054906101000a900473ffffffffffffffffffffffffffffffffffffffff1673ffffffffffffffffffffffffffffffffffffffff1663a9059cbb33836040518363ffffffff1660e01b8152600401610868929190610f56565b6020604051808303815f875af1158015610884573d5f803e3d5ffd5b505050506040513d601f19601f820116820180604052508101906108a89190610fa7565b6108e7576040517f08c379a00000000000000000000000000000000000000000000000000000000081526004016108de9061101c565b60405180910390fd5b3373ffffffffffffffffffffffffffffffffffffffff167f4baaea5232ccb0e3a5e41041d3f8ae77e093f9768e9b9a15d87e8d8bbcf159e7838360405161092f92919061103a565b60405180910390a250610940610ad1565b50565b61094b610ada565b73ffffffffffffffffffffffffffffffffffffffff166109696104e7565b73ffffffffffffffffffffffffffffffffffffffff16146109c85761098c610ada565b6040517f118cdaa70000000000000000000000000000000000000000000000000000000081526004016109bf9190610c61565b60405180910390fd5b565b5f805f9054906101000a900473ffffffffffffffffffffffffffffffffffffffff169050815f806101000a81548173ffffffffffffffffffffffffffffffffffffffff021916908373ffffffffffffffffffffffffffffffffffffffff1602179055508173ffffffffffffffffffffffffffffffffffffffff168173ffffffffffffffffffffffffffffffffffffffff167f8be0079c531659141344cd1fd0a4f28419497f9722a3daafe3b4186f6b6457e060405160405180910390a35050565b600260015403610ac7576040517f3ee5aeb500000000000000000000000000000000000000000000000000000000815260040160405180910390fd5b6002600181905550565b60018081905550565b5f33905090565b5f819050919050565b610af381610ae1565b82525050565b5f602082019050610b0c5f830184610aea565b92915050565b5f73ffffffffffffffffffffffffffffffffffffffff82169050919050565b5f819050919050565b5f610b54610b4f610b4a84610b12565b610b31565b610b12565b9050919050565b5f610b6582610b3a565b9050919050565b5f610b7682610b5b565b9050919050565b610b8681610b6c565b82525050565b5f602082019050610b9f5f830184610b7d565b92915050565b5f80fd5b5f610bb382610b12565b9050919050565b610bc381610ba9565b8114610bcd575f80fd5b50565b5f81359050610bde81610bba565b92915050565b5f60208284031215610bf957610bf8610ba5565b5b5f610c0684828501610bd0565b91505092915050565b5f608082019050610c225f830187610aea565b610c2f6020830186610aea565b610c3c6040830185610aea565b610c496060830184610aea565b95945050505050565b610c5b81610ba9565b82525050565b5f602082019050610c745f830184610c52565b92915050565b5f8115159050919050565b610c8e81610c7a565b82525050565b5f60a082019050610ca75f830188610c85565b610cb46020830187610aea565b610cc16040830186610aea565b610cce6060830185610aea565b610cdb6080830184610aea565b9695505050505050565b610cee81610ae1565b8114610cf8575f80fd5b50565b5f81359050610d0981610ce5565b92915050565b5f60208284031215610d2457610d23610ba5565b5b5f610d3184828501610cfb565b91505092915050565b5f82825260208201905092915050565b7f5573657220616c726561647920726567697374657265640000000000000000005f82015250565b5f610d7e601783610d3a565b9150610d8982610d4a565b602082019050919050565b5f6020820190508181035f830152610dab81610d72565b9050919050565b7f4e487b71000000000000000000000000000000000000000000000000000000005f52601160045260245ffd5b5f610de982610ae1565b9150610df483610ae1565b9250828202610e0281610ae1565b91508282048414831517610e1957610e18610db2565b5b5092915050565b7f55736572206e6f742072656769737465726564000000000000000000000000005f82015250565b5f610e54601383610d3a565b9150610e5f82610e20565b602082019050919050565b5f6020820190508181035f830152610e8181610e48565b9050919050565b5f610e9282610ae1565b9150610e9d83610ae1565b9250828203905081811115610eb557610eb4610db2565b5b92915050565b7f546f6f20736f6f6e2073696e6365206c617374206163746976697479000000005f82015250565b5f610eef601c83610d3a565b9150610efa82610ebb565b602082019050919050565b5f6020820190508181035f830152610f1c81610ee3565b9050919050565b5f610f2d82610ae1565b9150610f3883610ae1565b9250828201905080821115610f5057610f4f610db2565b5b92915050565b5f604082019050610f695f830185610c52565b610f766020830184610aea565b9392505050565b610f8681610c7a565b8114610f90575f80fd5b50565b5f81519050610fa181610f7d565b92915050565b5f60208284031215610fbc57610fbb610ba5565b5b5f610fc984828501610f93565b91505092915050565b7f526577617264207472616e73666572206661696c6564000000000000000000005f82015250565b5f611006601683610d3a565b915061101182610fd2565b602082019050919050565b5f6020820190508181035f83015261103381610ffa565b9050919050565b5f60408201905061104d5f830185610aea565b61105a6020830184610aea565b939250505056fea2646970667358221220ce611ed4a5751e3ce2533a7cb130054b011d1ca8fa7dc83022556371739bec3964736f6c63430008140033",
  "immutableReferences": {},
  "source": "// SPDX-License-Identifier: MIT\r\npragma solidity ^0.8.20;\r\n\r\nimport \"@openzeppelin/contracts/token/ERC20/ERC20.sol\";\r\nimport \"@openzeppelin/contracts/access/Ownable.sol\";\r\nimport \"@openzeppelin/contracts/utils/ReentrancyGuard.sol\";\r\n\r\n// The main token for the platform\r\ncontract RunToken is ERC20, Ownable {\r\n    constructor(uint256 initialSupply) ERC20(\"RunToken\", \"RUN\") Ownable(msg.sender) {\r\n        _mint(msg.sender, initialSupply);\r\n    }\r\n\r\n    function mint(address to, uint256 amount) public onlyOwner {\r\n        _mint(to, amount);\r\n    }\r\n}\r\n\r\n// The main contract for the run-to-earn platform\r\ncontract RunToEarn is Ownable, ReentrancyGuard {\r\n    RunToken public runToken;\r\n    \r\n    struct User {\r\n        bool isRegistered;\r\n        uint256 lastActivityTimestamp;\r\n        uint256 recentReward;\r\n        uint256 totalDistance;\r\n        uint256 totalRewards;\r\n    }\r\n    \r\n    mapping(address => User) public users;\r\n    \r\n    uint256 public constant REWARDS_PER_KM = 10 * 10**18; // 10 tokens per km\r\n    uint256 public constant MIN_TIME_BETWEEN_ACTIVITIES = 1 hours;\r\n    \r\n    event UserRegistered(address indexed user);\r\n    event ActivityLogged(address indexed user, uint256 distance, uint256 rewards);\r\n    \r\n    constructor(address _runTokenAddress) Ownable(msg.sender) {\r\n        runToken = RunToken(_runTokenAddress);\r\n    }\r\n    \r\n    function registerUser() public {\r\n        require(!users[msg.sender].isRegistered, \"User already registered\");\r\n        users[msg.sender] = User(true, 0, 0, 0, 0);\r\n        emit UserRegistered(msg.sender);\r\n    }\r\n    \r\n    function logActivity(uint256 distance) public nonReentrant {\r\n        require(users[msg.sender].isRegistered, \"User not registered\");\r\n        require(block.timestamp - users[msg.sender].lastActivityTimestamp >= MIN_TIME_BETWEEN_ACTIVITIES, \"Too soon since last activity\");\r\n        \r\n        uint256 rewards = calculateRewards(distance);\r\n        \r\n        users[msg.sender].totalDistance += distance;\r\n        users[msg.sender].totalRewards += rewards;\r\n        users[msg.sender].lastActivityTimestamp = block.timestamp;\r\n        \r\n        require(runToken.transfer(msg.sender, rewards), \"Reward transfer failed\");\r\n        \r\n        emit ActivityLogged(msg.sender, distance, rewards);\r\n    }\r\n    \r\n    function calculateRewards(uint256 distance) public pure returns (uint256) {\r\n        return distance * REWARDS_PER_KM;\r\n    }\r\n    \r\n    function getUserStats(address userAddress) public view returns (uint256, uint256, uint256, uint256) {\r\n        return (users[userAddress].lastActivityTimestamp, users[userAddress].recentReward, users[userAddress].totalDistance, users[userAddress].totalRewards);\r\n    }\r\n}\r\n\r\n// A simple marketplace contract for the platform\r\ncontract RunMarketplace is Ownable, ReentrancyGuard {\r\n    RunToken public runToken;\r\n    \r\n    struct Item {\r\n        uint256 id;\r\n        string name;\r\n        uint256 price;\r\n        address seller;\r\n        bool isAvailable;\r\n    }\r\n    \r\n    mapping(uint256 => Item) public items;\r\n    uint256 public itemCount;\r\n    \r\n    event ItemListed(uint256 indexed id, string name, uint256 price, address seller);\r\n    event ItemPurchased(uint256 indexed id, address buyer, address seller, uint256 price);\r\n    \r\n    constructor(address _runTokenAddress) Ownable(msg.sender) {\r\n        runToken = RunToken(_runTokenAddress);\r\n    }\r\n    \r\n    function listItem(string memory name, uint256 price) public {\r\n        itemCount++;\r\n        items[itemCount] = Item(itemCount, name, price, msg.sender, true);\r\n        emit ItemListed(itemCount, name, price, msg.sender);\r\n    }\r\n    \r\n    function purchaseItem(uint256 itemId) public nonReentrant {\r\n        Item storage item = items[itemId];\r\n        require(item.isAvailable, \"Item is not available\");\r\n        require(runToken.balanceOf(msg.sender) >= item.price, \"Insufficient balance\");\r\n        \r\n        item.isAvailable = false;\r\n        require(runToken.transferFrom(msg.sender, item.seller, item.price), \"Transfer failed\");\r\n        \r\n        emit ItemPurchased(itemId, msg.sender, item.seller, item.price);\r\n    }\r\n}",
  "sourcePath": "C:\\Users\\Admin\\Desktop\\Projects\\bt_ass_3\\server\\contracts\\RunToEarn.sol",
  "compiler": {
    "name": "solc",
    "version": "0.8.20+commit.a1b79de6.Emscripten.clang"
  },
  "schemaVersion": "3.4.16",
  "updatedAt": "2024-10-20T18:01:21.441Z",
  "devdoc": {
    "errors": {
      "OwnableInvalidOwner(address)": [
        {
          "details": "The owner is not a valid owner account. (eg. `address(0)`)"
        }
      ],
      "OwnableUnauthorizedAccount(address)": [
        {
          "details": "The caller account is not authorized to perform an operation."
        }
      ],
      "ReentrancyGuardReentrantCall()": [
        {
          "details": "Unauthorized reentrant call."
        }
      ]
    },
    "kind": "dev",
    "methods": {
      "owner()": {
        "details": "Returns the address of the current owner."
      },
      "renounceOwnership()": {
        "details": "Leaves the contract without owner. It will not be possible to call `onlyOwner` functions. Can only be called by the current owner. NOTE: Renouncing ownership will leave the contract without an owner, thereby disabling any functionality that is only available to the owner."
      },
      "transferOwnership(address)": {
        "details": "Transfers ownership of the contract to a new account (`newOwner`). Can only be called by the current owner."
      }
    },
    "version": 1
  },
  "userdoc": {
    "kind": "user",
    "methods": {},
    "version": 1
  }
}